:100000000C942A000C9447000C9447000C94470071
:100010000C9447000C9447000C9447000C94470044
:100020000C9447000C9447000C9447000C94470034
:100030000C9447000C9447000C9447000C94470024
:100040000C9447000C9447000C9447000C94470014
:100050000C94470011241FBECFE5D8E0DEBFCDBF12
:1000600010E0A0E6B0E0E6E8FDE202C005900D92E7
:10007000AC38B107D9F720E0ACE8B0E001C01D9280
:10008000A43AB207E1F70E94A6000C94C1160C94A2
:100090000000CF93DF9300D000D01F92CDB7DEB722
:1000A0008D839D8189E2989F812D112482958F7087
:1000B000805D89839D818DEC989F812D1124282F4F
:1000C0002695269526958DEC289F812D1124982F15
:1000D000969596959695892F880F880F890F880F8A
:1000E000922F981B80E3890F8A832D818DEC289FA6
:1000F000812D1124982F969596959695892F880F86
:10010000880F890F880F922F981B80E3890F8B83AC
:100110001C828981803369F48A81803329F4CE017D
:1001200003960E941E1409C0CE0102960E941E145E
:1001300004C0CE0101960E941E1400000F900F9083
:100140000F900F900F90DF91CF910895EF92FF9253
:100150000F931F93CF93DF93CDB7DEB7CE55D10961
:100160000FB6F894DEBF0FBECDBF0E94B608EE24D6
:10017000E394F12C07E010E026E030E045E050E0A9
:1001800060E070E081E090E00E94600A0E946E14DE
:1001900080E80E94130E80E690E00E941E1480E02A
:1001A00090E0AAE7B4E48B839C83AD83BE8320E018
:1001B00030E04AE753E46B817C818D819E810E940F
:1001C0005416DC01CB018F839887A987BA8720E07A
:1001D00030E040E85FE36F81788589859A850E94E9
:1001E000F71488232CF481E090E09C878B873FC034
:1001F00020E03FEF4FE757E46F81788589859A8546
:100200000E944F1618164CF520E030E040E251E411
:100210006B817C818D819E810E945416DC01CB0113
:10022000BC01CD010E946E15DC01CB019C878B8740
:100230000FC089E190E09E878D878D859E8501970F
:10024000F1F79E878D878B859C8501979C878B878F
:100250008B859C85892B69F714C06F81788589858A
:100260009A850E946E15DC01CB019C878B878B855C
:100270009C85988B8F878F8598890197F1F7988B4C
:100280008F8781E090E00E940E099E01215C3F4F24
:1002900080E090E0A0EAB1E4F90180839183A28339
:1002A000B3838E010D5B1F4FCE01CF962BEA3AEA46
:1002B0004AEA5EE3FC0160817181828193810E9440
:1002C0005416DC01CB01F80180839183A283B383B0
:1002D0008E01095B1F4FCE01CF9620E030E040E851
:1002E0005EE3FC0160817181828193810E945416DA
:1002F000DC01CB01F80180839183A283B383CE011B
:100300008D5B9F4F20E030E040E85FE3FC016081BF
:100310007181828193810E94F71488233CF4CE017D
:10032000855B9F4F21E0FC0120832FC1CE01895BBB
:100330009F4F20E03FEF4FE757E4FC016081718160
:10034000828193810E944F1618160CF0D0C0CE0106
:10035000CF9620E030E04AE754E4FC0160817181EF
:10036000828193810E94FC14DC01CB019E01245BFD
:100370003F4FF90180839183A283B3838E01005B99
:100380001F4FCE01845B9F4F20E030E04AE753E4EB
:10039000FC0160817181828193810E945416DC018D
:1003A000CB01F80180839183A283B383CE01805B6C
:1003B0009F4F20E030E040E85FE3FC016081718105
:1003C000828193810E94F71488234CF4CE018C5AC9
:1003D0009F4F21E030E0FC01318320836DC0CE01CE
:1003E000805B9F4F20E03FEF4FE757E4FC016081C7
:1003F0007181828193810E944F1618160CF04AC0B9
:10040000CE01845B9F4F20E030E040E251E4FC01EC
:1004100060817181828193810E945416DC01CB013D
:100420008E010C5A1F4FBC01CD010E946E15DC01DC
:10043000CB01F8019183808324C0CE018A5A9F4F5B
:1004400029E130E0FC0131832083CE018A5A9F4F9D
:10045000FC01808191810197F1F79E012A5A3F4F5B
:10046000F90191838083CE018C5A9F4F9E012C5AB3
:100470003F4FF9012081318121503109FC01318345
:100480002083CE018C5A9F4FFC0180819181892B62
:10049000A1F67BC08E010C5A1F4FCE01805B9F4F8F
:1004A000FC0160817181828193810E946E15DC0163
:1004B000CB01F80191838083CE01885A9F4F9E0122
:1004C0002C5A3F4FF90120813181FC013183208377
:1004D000CE01885A9F4FFC01808191810197F1F7ED
:1004E0009E01285A3F4FF901918380834EC0CE016F
:1004F0008D5B9F4F20E030E04FE753E4FC016081CB
:100500007181828193810E944F1618166CF58E01BD
:10051000065A1F4FCE01895B9F4FFC01608171819C
:10052000828193810E946E15DC01CB01F8019183D9
:100530008083CE01845A9F4F9E01265A3F4FF90176
:1005400020813181FC0131832083CE01845A9F4F69
:10055000FC01808191810197F1F79E01245A3F4F60
:10056000F9019183808328C08E01055B1F4FCE0166
:100570008D5B9F4FFC0160817181828193810E941C
:100580006E15DC01CB01F8018083CE01825A9F4FAA
:100590009E01255B3F4FF9012081FC012083CE01A4
:1005A000825A9F4FFC018081282F2A95F1F7CE01B6
:1005B000825A9F4FFC0120830E943E0A909397002D
:1005C000809396008091960090919700CC01A0E0D6
:1005D000B0E0BC01CD010E949D15DC01CB0120E003
:1005E00030E040EA50E4BC01CD010E945416DC0129
:1005F000CB0120E030EC4FE754E4BC01CD010E9478
:10060000FC14DC01CB0180938C0090938D00A093AF
:100610008E00B0938F0080E090E00E940E0980E091
:1006200090E0A0EAB1E48F8F98A3A9A3BAA32BEA24
:100630003AEA4AEA5EE36F8D78A189A19AA10E9405
:100640005416DC01CB018BA39CA3ADA3BEA320E079
:1006500030E040E85EE36F8D78A189A19AA10E9405
:100660005416DC01CB018FA398A7A9A7BAA720E055
:1006700030E040E85FE36BA17CA18DA19EA10E94C8
:10068000F71488231CF481E08BA7B2C020E03FEF71
:100690004FE757E46FA178A589A59AA50E944F1648
:1006A00018160CF07BC020E030E04AE754E46F8D70
:1006B00078A189A19AA10E94FC14DC01CB018CA72E
:1006C0009DA7AEA7BFA720E030E04AE753E46CA5A2
:1006D0007DA58EA59FA50E945416DC01CB0188AB99
:1006E00099ABAAABBBAB20E030E040E85FE368A980
:1006F00079A98AA99BA90E94F71488232CF481E088
:1007000090E09DAB8CAB3FC020E03FEF4FE757E45C
:1007100068A979A98AA99BA90E944F1618164CF5B9
:1007200020E030E040E251E46CA57DA58EA59FA5B8
:100730000E945416DC01CB01BC01CD010E946E1554
:10074000DC01CB019DAB8CAB0FC089E190E09FAB8E
:100750008EAB8EA99FA90197F1F79FAB8EAB8CA9A9
:100760009DA901979DAB8CAB8CA99DA9892B69F79D
:100770003FC068A979A98AA99BA90E946E15DC01CE
:10078000CB019DAB8CAB8CA99DA999AF88AF88ADEF
:1007900099AD0197F1F799AF88AF2AC020E030E01A
:1007A0004FE753E46BA17CA18DA19EA10E944F163F
:1007B0001816ACF46FA178A589A59AA50E946E15AC
:1007C000DC01CB019BAF8AAF8AAD9BAD9DAF8CAFF7
:1007D0008CAD9DAD0197F1F79DAF8CAF0FC06BA1B4
:1007E0007CA18DA19EA10E946E15DC01CB018BA77F
:1007F0008BA58EAF8EAD8A95F1F78EAF0E943E0A23
:10080000909395008093940080919400909195002E
:10081000CC01A0E0B0E0BC01CD010E949D15DC013F
:10082000CB0120E030E04AEF53E4BC01CD010E944F
:100830005416DC01CB0120E030EC4FE754E4BC015E
:10084000CD010E94FC14DC01CB01809390009093B9
:100850009100A0939200B09393000E946E1480E8E0
:100860000E94130E8FE690E00E941E14809190006B
:1008700090919100A0919200B0919300BC01CD01A4
:100880000E946E15DC01CB01898389810E94490099
:1008900087E790E00E941E1480EC0E94130E8AE706
:1008A00090E00E941E1480918C0090918D00A09188
:1008B0008E00B0918F0020E030E048EC52E4BC01A3
:1008C000CD010E945416DC01CB0120E030E040EA6B
:1008D00050E4BC01CD010E94FC14DC01CB01BC0141
:1008E000CD010E946E15DC01CB018A838A810E94B2
:1008F000490083E890E00E941E1480E090E8ABEB92
:10090000B4E4898B9A8BAB8BBC8B20E030E04AE758
:1009100053E469897A898B899C890E945416DC0189
:10092000CB018D8B9E8BAF8BB88F20E030E040E801
:100930005FE36D897E898F89988D0E94F7148823E3
:100940002CF481E090E09A8F898F3FC020E03FEF48
:100950004FE757E46D897E898F89988D0E944F16E5
:1009600018164CF520E030E040E251E469897A89BC
:100970008B899C890E945416DC01CB01BC01CD01FE
:100980000E946E15DC01CB019A8F898F0FC089E11F
:1009900090E09C8F8B8F8B8D9C8D0197F1F79C8FB6
:1009A0008B8F898D9A8D01979A8F898F898D9A8DDA
:1009B000892B69F714C06D897E898F89988D0E9473
:1009C0006E15DC01CB019A8F898F898D9A8D9E8F50
:1009D0008D8F8D8D9E8D0197F1F79E8F8D8F8091DC
:1009E000900090919100A0919200B091930020E02E
:1009F00030E048E452E4BC01CD010E944F161816C5
:100A00003CF0809196009091970081159240C8F437
:100A100041E050E064E070E080E090E00E94AE06CB
:100A200041E050E062E070E080E090E00E94AE06BD
:100A300040E050E063E070E080E090E00E94AE06AD
:100A400018C040E050E064E070E080E090E00E9478
:100A5000AE0640E050E062E070E080E090E00E948E
:100A6000AE0641E050E063E070E080E090E00E947C
:100A7000AE0607CCCF93DF9300D000D0CDB7DEB762
:100A80009A8389837C836B838B819C81019739F561
:100A900089819A818130910579F08130910530F01A
:100AA0008230910579F0039799F03BC08AE390E09A
:100AB0002FEFFC01208335C087E390E02FEFFC018E
:100AC00020832FC084E390E02FEFFC01208329C016
:100AD00081E390E02FEFFC012083000022C0898198
:100AE0009A818130910571F08130910530F082302A
:100AF000910569F0039781F014C08AE390E0FC014E
:100B000010820FC087E390E0FC0110820AC084E3EA
:100B100090E0FC01108205C081E390E0FC011082AE
:100B2000000000000F900F900F900F90DF91CF9179
:100B30000895CF93DF9300D000D000D0CDB7DEB7BB
:100B40009A8389837C836B835E834D8389819A81B9
:100B5000049708F0C3C08B819C81089708F0BEC041
:100B60008D819E81019709F05BC089819A818130D6
:100B70009105E1F08130910530F08230910549F125
:100B80000397D1F1ABC08AE390E0FC018081282F6C
:100B900081E090E00B8002C0880F991F0A94E2F771
:100BA000282B8AE390E0FC01208398C087E390E043
:100BB000FC018081282F81E090E00B8002C0880F2B
:100BC000991F0A94E2F7282B87E390E0FC01208329
:100BD00085C084E390E0FC018081282F81E090E0D3
:100BE0000B8002C0880F991F0A94E2F7282B84E338
:100BF00090E0FC01208372C081E390E0FC018081E1
:100C0000282F81E090E00B8002C0880F991F0A9482
:100C1000E2F7282B81E390E0FC01208300005EC016
:100C200089819A8181309105E9F08130910530F018
:100C30008230910559F10397E9F150C08AE390E0C1
:100C4000FC018081282F81E090E00B8002C0880F9A
:100C5000991F0A94E2F7809528238AE390E0FC012B
:100C600020833CC087E390E0FC018081282F81E055
:100C700090E00B8002C0880F991F0A94E2F78095DC
:100C8000282387E390E0FC01208328C084E390E0E0
:100C9000FC018081282F81E090E00B8002C0880F4A
:100CA000991F0A94E2F78095282384E390E0FC01E1
:100CB000208314C081E390E0FC018081282F81E033
:100CC00090E00B8002C0880F991F0A94E2F780958C
:100CD000282381E390E0FC01208300000000269699
:100CE0000FB6F894DEBF0FBECDBFDF91CF91089550
:100CF000CF93DF9300D01F92CDB7DEB79A8389835D
:100D00006B8389819A818130910579F081309105D9
:100D100030F08230910579F0039799F018C08BE399
:100D200090E02B81FC01208312C088E390E02B81AE
:100D3000FC0120830CC085E390E02B81FC01208323
:100D400006C082E390E02B81FC01208300000000BC
:100D50000F900F900F90DF91CF910895CF93DF9375
:100D600000D000D000D0CDB7DEB79A8389837C83D2
:100D70006B835E834D8389819A81049708F0C3C099
:100D80008B819C81089708F0BEC08D819E81019760
:100D900009F05BC089819A8181309105E1F0813051
:100DA000910530F08230910549F10397D1F1ABC044
:100DB0008BE390E0FC018081282F81E090E00B80A4
:100DC00002C0880F991F0A94E2F7282B8BE390E06A
:100DD000FC01208398C088E390E0FC018081282FEB
:100DE00081E090E00B8002C0880F991F0A94E2F71F
:100DF000282B88E390E0FC01208385C085E390E008
:100E0000FC018081282F81E090E00B8002C0880FD8
:100E1000991F0A94E2F7282B85E390E0FC012083D8
:100E200072C082E390E0FC018081282F81E090E095
:100E30000B8002C0880F991F0A94E2F7282B82E3E7
:100E400090E0FC01208300005EC089819A8181309E
:100E50009105E9F08130910530F08230910559F12A
:100E60000397E9F150C08BE390E0FC018081282FCB
:100E700081E090E00B8002C0880F991F0A94E2F78E
:100E8000809528238BE390E0FC0120833CC088E31D
:100E900090E0FC018081282F81E090E00B8002C06F
:100EA000880F991F0A94E2F78095282388E390E041
:100EB000FC01208328C085E390E0FC018081282F7D
:100EC00081E090E00B8002C0880F991F0A94E2F73E
:100ED0008095282385E390E0FC01208314C082E301
:100EE00090E0FC018081282F81E090E00B8002C01F
:100EF000880F991F0A94E2F78095282382E390E0F7
:100F0000FC0120830000000026960FB6F894DEBF97
:100F10000FBECDBFDF91CF910895CF93DF9300D067
:100F200000D000D0CDB7DEB79C838B837E836D83EA
:100F30001A8219828B819C81049708F057C08D8199
:100F40009E81089708F052C08B819C818130910569
:100F5000D1F08130910530F08230910529F103976D
:100F6000A1F144C089E390E0FC018081882F90E0EA
:100F70000D8002C0959587950A94E2F781709927B4
:100F80009A83898333C086E390E0FC018081882FB7
:100F900090E00D8002C0959587950A94E2F78170E4
:100FA00099279A83898322C083E390E0FC018081A2
:100FB000882F90E00D8002C0959587950A94E2F7FE
:100FC000817099279A83898311C080E390E0FC01A6
:100FD0008081882F90E00D8002C0959587950A94B6
:100FE000E2F7817099279A838983000089819A8129
:100FF00026960FB6F894DEBF0FBECDBFDF91CF911E
:101000000895CF93DF9300D0CDB7DEB79A8389835D
:1010100089819A818130910591F08130910530F07C
:1010200082309105A9F00397E1F024C02BE330E072
:101030008BE390E0F9012081FC0120831BC028E3B1
:1010400030E088E390E0F9012081FC01208312C0A8
:1010500025E330E085E390E0F9012081FC01208365
:1010600009C022E330E082E390E0F9012081FC0135
:101070002083000000000F900F90DF91CF91089522
:10108000CF93DF9300D000D0CDB7DEB79A838983AA
:101090007C836B8389819A81049708F05FC08B8180
:1010A0009C81089708F05AC089819A818130910506
:1010B000E1F08130910530F08230910549F10397DC
:1010C000D1F14CC08BE390E0FC018081282F81E0BE
:1010D00090E00B8002C0880F991F0A94E2F728273E
:1010E0008BE390E0FC01208339C088E390E0FC01B1
:1010F0008081282F81E090E00B8002C0880F991F2B
:101100000A94E2F7282788E390E0FC01208326C0B8
:1011100085E390E0FC018081282F81E090E00B8046
:1011200002C0880F991F0A94E2F7282785E390E010
:10113000FC01208313C082E390E0FC018081282F12
:1011400081E090E00B8002C0880F991F0A94E2F7BB
:10115000282782E390E0FC012083000000000F902C
:101160000F900F900F90DF91CF910895CF93DF9361
:10117000CDB7DEB787E290E0FC01208187E290E006
:101180002F73FC01208387E290E0FC01208187E23D
:1011900090E02064FC01208387E290E0FC01208144
:1011A00087E290E02F7DFC01208386E290E0FC0145
:1011B000208186E290E0287FFC01208386E290E097
:1011C000FC01208186E290E02760FC01208386E21A
:1011D00090E0FC01208186E290E02062FC01208307
:1011E00080E590E0FC01208180E590E02F71FC011A
:1011F000208320E530E080E590E0F9012081FC01CA
:10120000208386E290E0FC01208186E290E0206865
:10121000FC0120830000DF91CF910895CF93DF93ED
:10122000CDB7DEB7A2970FB6F894DEBF0FBECDBF25
:101230009AA389A387E290E0FC01208187E290E0F5
:10124000207EFC01208387E290E0FC01308129A10F
:1012500087E290E0232BFC01208380E090E0A0E275
:10126000B1E489839A83AB83BC832BEA3AEA4AEAE6
:101270005EE369817A818B819C810E945416DC0136
:10128000CB018D839E83AF83B88720E030E040E8B8
:101290005EE369817A818B819C810E945416DC0116
:1012A000CB0189879A87AB87BC8720E030E040E894
:1012B0005FE36D817E818F8198850E94F71488237A
:1012C0001CF481E08D87B2C020E03FEF4FE757E488
:1012D00069857A858B859C850E944F1618160CF0BF
:1012E0007BC020E030E04AE754E469817A818B8159
:1012F0009C810E94FC14DC01CB018E879F87A88B08
:10130000B98B20E030E04AE753E46E857F85888919
:1013100099890E945416DC01CB018A8B9B8BAC8B84
:10132000BD8B20E030E040E85FE36A897B898C89EF
:101330009D890E94F71488232CF481E090E09F8B14
:101340008E8B3FC020E03FEF4FE757E46A897B89EF
:101350008C899D890E944F1618164CF520E030E0CC
:1013600040E251E46E857F85888999890E945416F0
:10137000DC01CB01BC01CD010E946E15DC01CB016B
:101380009F8B8E8B0FC089E190E0998F888F888D1D
:10139000998D0197F1F7998F888F8E899F89019791
:1013A0009F8B8E8B8E899F89892B69F73FC06A89B5
:1013B0007B898C899D890E946E15DC01CB019F8BF6
:1013C0008E8B8E899F899B8F8A8F8A8D9B8D0197AB
:1013D000F1F79B8F8A8F2AC020E030E04FE753E47B
:1013E0006D817E818F8198850E944F161816ACF40E
:1013F00069857A858B859C850E946E15DC01CB0101
:101400009D8F8C8F8C8D9D8D9F8F8E8F8E8D9F8DC0
:101410000197F1F79F8F8E8F0FC06D817E818F8135
:1014200098850E946E15DC01CB018D878D8588A380
:1014300088A18A95F1F788A386E290E0FC012081DB
:1014400086E290E02064FC012083000086E290E0C8
:10145000FC0180818295869586958370882F90E027
:1014600081709927892B91F70000A2960FB6F89406
:10147000DEBF0FBECDBFDF91CF910895CF93DF9335
:10148000CDB7DEB7000086E290E0FC018081829556
:101490008F70882F90E081709927892BA1F386E2C5
:1014A00090E0FC01208186E290E02061FC01208335
:1014B00084E290E0FC0180819181DF91CF910895D9
:1014C000EF92FF920F931F93CF93DF93CDB7DEB7C9
:1014D000CA55D1090FB6F894DEBF0FBECDBFFE01CD
:1014E000E15BFF4F91838083CE018F5A9F4FFC01B8
:1014F00071836083CE018D5A9F4FFC0151834083DD
:10150000CE018B5A9F4FFC0131832083CE01895A33
:101510009F4FFC0111830083CE01875A9F4FFC012E
:10152000F182E082CE01815B9F4FFC01808191813D
:101530009093990080939800CE018F5A9F4FFC01A1
:101540008081918190939B0080939A00CE018D5A67
:101550009F4FFC018081918190939D0080939C001E
:10156000CE018B5A9F4FFC018081918190939F0007
:1015700080939E00CE01895A9F4FFC01808191810A
:101580009093A1008093A000CE01875A9F4FFC0149
:10159000808191819093A3008093A200CE018D5A07
:1015A0009F4FFC0120813181CE018F5A9F4FFC015A
:1015B0008081918141E050E0B9010E949905CE01FE
:1015C0008B5A9F4FFC0120813181CE018F5A9F4F52
:1015D000FC018081918141E050E0B9010E949905B0
:1015E000CE01895A9F4FFC0120813181CE018F5A53
:1015F0009F4FFC018081918141E050E0B9010E9440
:101600009905CE01875A9F4FFC01808191810197F6
:10161000D1F41A82198212C029813A81CE01815BEC
:101620009F4FFC018081918141E050E0B9010E940F
:10163000990589819A8101969A83898389819A8102
:10164000089754F31BC084E090E09C838B8312C006
:101650002B813C81CE01815B9F4FFC018081918178
:1016600041E050E0B9010E9499058B819C8101966F
:101670009C838B838B819C81089754F380E090E05E
:10168000A0EFB1E48D839E83AF83B88720E030E084
:101690004AE753E46D817E818F8198850E945416BC
:1016A000DC01CB0189879A87AB87BC8720E030E0DB
:1016B00040E85FE369857A858B859C850E94F714F5
:1016C00088232CF481E090E09E878D873FC020E046
:1016D0003FEF4FE757E469857A858B859C850E94AB
:1016E0004F1618164CF520E030E040E251E46D81D1
:1016F0007E818F8198850E945416DC01CB01BC014C
:10170000CD010E946E15DC01CB019E878D870FC035
:1017100089E190E0988B8F878F8598890197F1F701
:10172000988B8F878D859E8501979E878D878D8568
:101730009E85892B69F714C069857A858B859C8580
:101740000E946E15DC01CB019E878D878D859E855D
:101750009A8B898B89899A890197F1F79A8B898B62
:10176000CE01875A9F4FFC0180819181892B09F01E
:101770007BC183E00E94EF0F80E090E0A0EAB0E43C
:101780008BAB9CABADABBEAB20E030E04AE753E4A3
:101790006BA97CA98DA99EA90E945416DC01CB01DE
:1017A0008FAB98AFA9AFBAAF20E030E040E85FE37D
:1017B0006FA978AD89AD9AAD0E94F71488232CF4F7
:1017C00081E090E09CAF8BAF3FC020E03FEF4FE760
:1017D00057E46FA978AD89AD9AAD0E944F161816DF
:1017E0004CF520E030E040E251E46BA97CA98DA9E2
:1017F0009EA90E945416DC01CB01BC01CD010E94C0
:101800006E15DC01CB019CAF8BAF0FC089E190E07E
:101810009EAF8DAF8DAD9EAD0197F1F79EAF8DAFB1
:101820008BAD9CAD01979CAF8BAF8BAD9CAD892BE5
:1018300069F71EC06FA978AD89AD9AAD0E946E158B
:10184000DC01CB019CAF8BAF2BAD3CADCE01CF9675
:10185000FC0131832083CE01CF96FC0180819181F0
:101860000197F1F79E01215C3F4FF901918380833D
:1018700083E00E94EF0F80E090E0A6E1B3E48B8B61
:101880009C8BAD8BBE8B2BEA3AEA4AEA5EE36B890E
:101890007C898D899E890E945416DC01CB018F8B37
:1018A000988FA98FBA8F20E030E040E85EE36B8923
:1018B0007C898D899E890E945416DC01CB018B8F17
:1018C0009C8FAD8FBE8F20E030E040E85FE36F89F2
:1018D000788D898D9A8D0E94F71488231CF481E0FD
:1018E0008F8FB2C020E03FEF4FE757E46B8D7C8DC8
:1018F0008D8D9E8D0E944F1618160CF07BC020E037
:1019000030E04AE754E46B897C898D899E890E9486
:10191000FC14DC01CB0188A399A3AAA3BBA320E0FC
:1019200030E04AE753E468A179A18AA19BA10E9413
:101930005416DC01CB018CA39DA3AEA3BFA320E072
:1019400030E040E85FE36CA17DA18EA19FA10E94E1
:10195000F71488232CF481E090E099A788A73FC072
:1019600020E03FEF4FE757E46CA17DA18EA19FA13E
:101970000E944F1618164CF520E030E040E251E48A
:1019800068A179A18AA19BA10E945416DC01CB0118
:10199000BC01CD010E946E15DC01CB0199A788A77F
:1019A0000FC089E190E09BA78AA78AA59BA5019714
:1019B000F1F79BA78AA788A599A5019799A788A75A
:1019C00088A599A5892B69F73FC06CA17DA18EA13F
:1019D0009FA10E946E15DC01CB0199A788A788A55D
:1019E00099A59DA78CA78CA59DA50197F1F79DA70B
:1019F0008CA72AC020E030E04FE753E46F89788D50
:101A0000898D9A8D0E944F161816ACF46B8D7C8DC3
:101A10008D8D9E8D0E946E15DC01CB019FA78EA738
:101A20008EA59FA599AB88AB88A999A90197F1F7D5
:101A300099AB88AB0FC06F89788D898D9A8D0E9484
:101A40006E15DC01CB018F8F8F8D8AAB8AA98A95A9
:101A5000F1F78AAB83E00E94EF0F82E00E94EF0F64
:101A600088E20E94130E03C088E30E94130E8CE0EC
:101A70000E94130E86E00E94130E81E00E94130E56
:101A80009E012F5B3F4F80E090E0A0E0B0E4F901C1
:101A900080839183A283B3838E010B5B1F4FCE01A2
:101AA0008F5B9F4F20E030E04AE753E4FC01608108
:101AB0007181828193810E945416DC01CB01F8016F
:101AC00080839183A283B383CE018B5B9F4F20E001
:101AD00030E040E85FE3FC016081718182819381A5
:101AE0000E94F71488234CF4CE01875B9F4F21E0BE
:101AF00030E0FC01318320836DC0CE018B5B9F4FB2
:101B000020E03FEF4FE757E4FC0160817181828163
:101B100093810E944F1618160CF04AC0CE018F5BBD
:101B20009F4F20E030E040E251E4FC016081718190
:101B3000828193810E945416DC01CB018E01075BE8
:101B40001F4FBC01CD010E946E15DC01CB01F801D5
:101B50009183808324C0CE01855B9F4F29E130E0D3
:101B6000FC0131832083CE01855B9F4FFC01808186
:101B700091810197F1F79E01255B3F4FF901918318
:101B80008083CE01875B9F4F9E01275B3F4FF9010A
:101B90002081318121503109FC0131832083CE0124
:101BA000875B9F4FFC0180819181892BA1F62CC01E
:101BB0008E01075B1F4FCE018B5B9F4FFC01608145
:101BC0007181828193810E946E15DC01CB01F80145
:101BD00091838083CE01835B9F4F9E01275B3F4FA4
:101BE000F90120813181FC0131832083CE01835BA7
:101BF0009F4FFC01808191810197F1F79E01235B4A
:101C00003F4FF901918380830000C65ADF4F0FB622
:101C1000F894DEBF0FBECDBFDF91CF911F910F9122
:101C2000FF90EF900895CF93DF93CDB7DEB7E197A4
:101C30000FB6F894DEBF0FBECDBF89AB20919C00DC
:101C400030919D0080919A0090919B0040E050E07F
:101C5000B9010E94AE0620919E0030919F008091B4
:101C60009A0090919B0040E050E0B9010E94AE06BE
:101C70008091A2009091A300019709F09DC11A8262
:101C800019821AC089A9882F90E0098002C0959511
:101C900087950A94E2F781709927AC0129813A81EE
:101CA0008091980090919900B9010E94AE068981B7
:101CB0009A8101969A83898389819A81089714F37E
:101CC0002091A0003091A10080919A0090919B00FA
:101CD00041E050E0B9010E94AE0680E090E0A0E84B
:101CE000BFE3898B9A8BAB8BBC8B2BEA3AEA4AEA2F
:101CF0005EE369897A898B899C890E945416DC018C
:101D0000CB018D8B9E8BAF8BB88F20E030E040E80D
:101D10005EE369897A898B899C890E945416DC016B
:101D2000CB01898F9A8FAB8FBC8F20E030E040E8E9
:101D30005FE36D897E898F89988D0E94F7148823CF
:101D40001CF481E08D8FB2C020E03FEF4FE757E4F5
:101D5000698D7A8D8B8D9C8D0E944F1618160CF014
:101D60007BC020E030E04AE754E469897A898B89B6
:101D70009C890E94FC14DC01CB018E8F9F8FA8A34D
:101D8000B9A320E030E04AE753E46E8D7F8D88A14F
:101D900099A10E945416DC01CB018AA39BA3ACA39A
:101DA000BDA320E030E040E85FE36AA17BA18CA105
:101DB0009DA10E94F71488232CF481E090E09FA35A
:101DC0008EA33FC020E03FEF4FE757E46AA17BA11D
:101DD0008CA19DA10E944F1618164CF520E030E012
:101DE00040E251E46E8D7F8D88A199A10E94541626
:101DF000DC01CB01BC01CD010E946E15DC01CB01E1
:101E00009FA38EA30FC089E190E099A788A788A51A
:101E100099A50197F1F799A788A78EA19FA101978E
:101E20009FA38EA38EA19FA1892B69F73FC06AA1B2
:101E30007BA18CA19DA10E946E15DC01CB019FA30B
:101E40008EA38EA19FA19BA78AA78AA59BA5019778
:101E5000F1F79BA78AA72AC020E030E04FE753E4C0
:101E60006D897E898F89988D0E944F161816ACF463
:101E7000698D7A8D8B8D9C8D0E946E15DC01CB0156
:101E80009DA78CA78CA59DA59FA78EA78EA59FA576
:101E90000197F1F79FA78EA70FC06D897E898F8963
:101EA000988D0E946E15DC01CB018D8F8D8D88ABD6
:101EB00088A98A95F1F788AB2091A0003091A10004
:101EC00080919A0090919B0040E050E0B9010E94FF
:101ED000AE0680E090E0A0E0B0E48B839C83AD830D
:101EE000BE8320E030E04AE753E46B817C818D8142
:101EF0009E810E945416DC01CB018F839887A987AD
:101F0000BA8720E030E040E85FE36F81788589851B
:101F10009A850E94F71488232CF481E090E09C8736
:101F20008B873FC020E03FEF4FE757E46F81788514
:101F300089859A850E944F1618164CF520E030E0EE
:101F400040E251E46B817C818D819E810E94541618
:101F5000DC01CB01BC01CD010E946E15DC01CB017F
:101F60009C878B870FC089E190E09E878D878D8548
:101F70009E850197F1F79E878D878B859C850197BC
:101F80009C878B878B859C85892B69F71EC06F8109
:101F9000788589859A850E946E15DC01CB019C8726
:101FA0008B878B859C85988B8F878F8598890197E8
:101FB000F1F7988B8F8709C089A982958F700E944D
:101FC000EF0F89A98F700E94EF0F0000E1960FB606
:101FD000F894DEBF0FBECDBFDF91CF910895CF93B0
:101FE000DF93CDB7DEB7C354D1090FB6F894DEBF87
:101FF0000FBECDBF9E012D5B3F4FF90180831A823A
:10200000198220C0CE018D5B9F4FFC018081882FFB
:1020100090E0098002C0959587950A94E2F7817057
:102020009927AC0189819A8104969C01809198003E
:1020300090919900B9010E94AE0689819A8101961A
:102040009A83898389819A810497E4F22091A00080
:102050003091A10080919A0090919B0041E050E066
:10206000B9010E94AE0680E090E0A0E8BFE38BA338
:102070009CA3ADA3BEA32BEA3AEA4AEA5EE36BA1B6
:102080007CA18DA19EA10E945416DC01CB018FA3DF
:1020900098A7A9A7BAA720E030E040E85EE36BA1CB
:1020A0007CA18DA19EA10E945416DC01CB018BA7BF
:1020B0009CA7ADA7BEA720E030E040E85FE36FA19A
:1020C00078A589A59AA50E94F71488231CF481E0BD
:1020D0008FA7BEC020E03FEF4FE757E46BA57CA57C
:1020E0008DA59EA50E944F1618160CF07BC020E00F
:1020F00030E04AE754E46BA17CA18DA19EA10E942F
:10210000FC14DC01CB0188AB99ABAAABBBAB20E0E4
:1021100030E04AE753E468A979A98AA99BA90E94FB
:102120005416DC01CB018CAB9DABAEABBFAB20E05A
:1021300030E040E85FE36CA97DA98EA99FA90E94C9
:10214000F71488232CF481E090E099AF88AF3FC06A
:1021500020E03FEF4FE757E46CA97DA98EA99FA926
:102160000E944F1618164CF520E030E040E251E492
:1021700068A979A98AA99BA90E945416DC01CB0100
:10218000BC01CD010E946E15DC01CB0199AF88AF77
:102190000FC089E190E09BAF8AAF8AAD9BAD0197FC
:1021A000F1F79BAF8AAF88AD99AD019799AF88AF32
:1021B00088AD99AD892B69F74BC06CA97DA98EA913
:1021C0009FA90E946E15DC01CB0199AF88AF88AD45
:1021D00099AD9DAF8CAF8CAD9DAD0197F1F79DAFE3
:1021E0008CAF36C020E030E04FE753E46FA178A514
:1021F00089A59AA50E944F1618160CF56BA57CA50B
:102200008DA59EA50E946E15DC01CB019FAF8EAF00
:10221000CE01805C9F4F2EAD3FADFC01318320830A
:10222000CE01805C9F4FFC01808191810197F1F785
:102230009E01205C3F4FF901918380831CC06FA1F8
:1022400078A589A59AA50E946E15DC01CB018FA700
:10225000CE018E5B9F4F2FA5FC012083CE018E5BAC
:102260009F4FFC018081282F2A95F1F7CE018E5BCC
:102270009F4FFC0120832091A0003091A10080910C
:102280009A0090919B0040E050E0B9010E94AE0698
:1022900080E090E0A8ECB2E48B839C83AD83BE83A6
:1022A0002BEA3AEA4AEA5EE36B817C818D819E816A
:1022B0000E945416DC01CB018F839887A987BA87C7
:1022C00020E030E040E85EE36B817C818D819E817F
:1022D0000E945416DC01CB018B879C87AD87BE879B
:1022E00020E030E040E85FE36F81788589859A855A
:1022F0000E94F71488231CF481E08F87B2C020E08D
:102300003FEF4FE757E46B857C858D859E850E9466
:102310004F1618160CF07BC020E030E04AE754E47A
:102320006B817C818D819E810E94FC14DC01CB013C
:10233000888B998BAA8BBB8B20E030E04AE753E473
:10234000688979898A899B890E945416DC01CB01AE
:102350008C8B9D8BAE8BBF8B20E030E040E85FE341
:102360006C897D898E899F890E94F71488232CF4BB
:1023700081E090E0998F888F3FC020E03FEF4FE7EA
:1023800057E46C897D898E899F890E944F161816A3
:102390004CF520E030E040E251E4688979898A898F
:1023A0009B890E945416DC01CB01BC01CD010E9427
:1023B0006E15DC01CB01998F888F0FC089E190E009
:1023C0009B8F8A8F8A8D9B8D0197F1F79B8F8A8FC8
:1023D000888D998D0197998F888F888D998D892BFC
:1023E00069F73FC06C897D898E899F890E946E152F
:1023F000DC01CB01998F888F888D998D9D8F8C8F73
:102400008C8D9D8D0197F1F79D8F8C8F2AC020E0D8
:1024100030E04FE753E46F81788589859A850E9483
:102420004F161816ACF46B857C858D859E850E94B1
:102430006E15DC01CB019F8F8E8F8E8D9F8D99A3A2
:1024400088A388A199A10197F1F799A388A30FC048
:102450006F81788589859A850E946E15DC01CB0194
:102460008F878F858AA38AA18A95F1F78AA30000B6
:10247000CD5BDF4F0FB6F894DEBF0FBECDBFDF914F
:10248000CF910895CF93DF93CDB7DEB7E1970FB625
:10249000F894DEBF0FBECDBF89AB20919C00309178
:1024A0009D0080919A0090919B0041E050E0B9011D
:1024B0000E94AE0620919E0030919F0080919A006C
:1024C00090919B0040E050E0B9010E94AE068091DF
:1024D000A2009091A300019709F09DC11A82198270
:1024E0001AC089A9882F90E0098002C09595879528
:1024F0000A94E2F781709927AC0129813A81809191
:10250000980090919900B9010E94AE0689819A8144
:1025100001969A83898389819A81089714F320917F
:10252000A0003091A10080919A0090919B0041E021
:1025300050E0B9010E94AE0680E090E0A0E8BFE361
:10254000898B9A8BAB8BBC8B2BEA3AEA4AEA5EE327
:1025500069897A898B899C890E945416DC01CB0198
:102560008D8B9E8BAF8BB88F20E030E040E85EE330
:1025700069897A898B899C890E945416DC01CB0178
:10258000898F9A8FAB8FBC8F20E030E040E85FE30B
:102590006D897E898F89988D0E94F71488231CF499
:1025A00081E08D8FB2C020E03FEF4FE757E4698DA7
:1025B0007A8D8B8D9C8D0E944F1618160CF07BC067
:1025C00020E030E04AE754E469897A898B899C8964
:1025D0000E94FC14DC01CB018E8F9F8FA8A3B9A3AE
:1025E00020E030E04AE753E46E8D7F8D88A199A109
:1025F0000E945416DC01CB018AA39BA3ACA3BDA30C
:1026000020E030E040E85FE36AA17BA18CA19DA1BE
:102610000E94F71488232CF481E090E09FA38EA3FE
:102620003FC020E03FEF4FE757E46AA17BA18CA1B8
:102630009DA10E944F1618164CF520E030E040E2B4
:1026400051E46E8D7F8D88A199A10E945416DC0102
:10265000CB01BC01CD010E946E15DC01CB019FA313
:102660008EA30FC089E190E099A788A788A599A5B6
:102670000197F1F799A788A78EA19FA101979FA322
:102680008EA38EA19FA1892B69F73FC06AA17BA170
:102690008CA19DA10E946E15DC01CB019FA38EA38E
:1026A0008EA19FA19BA78AA78AA59BA50197F1F759
:1026B0009BA78AA72AC020E030E04FE753E46D894A
:1026C0007E898F89988D0E944F161816ACF4698DFB
:1026D0007A8D8B8D9C8D0E946E15DC01CB019DA7A0
:1026E0008CA78CA59DA59FA78EA78EA59FA50197BA
:1026F000F1F79FA78EA70FC06D897E898F89988D6E
:102700000E946E15DC01CB018D8F8D8D88AB88A961
:102710008A95F1F788AB2091A0003091A1008091BB
:102720009A0090919B0040E050E0B9010E94AE06F3
:1027300080E090E0A0E0B0E48B839C83AD83BE8317
:1027400020E030E04AE753E46B817C818D819E81FB
:102750000E945416DC01CB018F839887A987BA8722
:1027600020E030E040E85FE36F81788589859A85D5
:102770000E94F71488232CF481E090E09C878B87DB
:102780003FC020E03FEF4FE757E46F8178858985B0
:102790009A850E944F1618164CF520E030E040E272
:1027A00051E46B817C818D819E810E945416DC01F5
:1027B000CB01BC01CD010E946E15DC01CB019C87D1
:1027C0008B870FC089E190E09E878D878D859E85E0
:1027D0000197F1F79E878D878B859C8501979C8754
:1027E0008B878B859C85892B69F71EC06F817885C7
:1027F00089859A850E946E15DC01CB019C878B87A9
:102800008B859C85988B8F878F8598890197F1F7A9
:10281000988B8F8709C089A982958F700E94EF0FCE
:1028200089A98F700E94EF0F0000E1960FB6F8940F
:10283000DEBF0FBECDBFDF91CF910895CF93DF9361
:1028400000D0CDB7DEB79A8389830BC089819A8186
:102850009C012F5F3F4F3A832983FC0180810E94B6
:10286000421289819A81FC018081882379F70000D6
:102870000F900F90DF91CF910895CF93DF9300D009
:1028800000D0CDB7DEB78A837C836B838A81877063
:102890008A838A81885F880F880F880F0E94130EB1
:1028A00019820EC08981882F90E02B813C81820F94
:1028B000931FFC0180810E94421289818F5F89836E
:1028C0008981883078F380E80E94130E00000F9011
:1028D0000F900F900F90DF91CF910895CF93DF93DA
:1028E000CDB7DEB72E970FB6F894DEBF0FBECDBFC3
:1028F00081E00E94130E80E090E0A0E0B0E48983C4
:102900009A83AB83BC8320E030E04AE753E46981DB
:102910007A818B819C810E945416DC01CB018D83CE
:102920009E83AF83B88720E030E040E85FE36D81AD
:102930007E818F8198850E94F71488232CF481E092
:1029400090E09A8789873FC020E03FEF4FE757E448
:102950006D817E818F8198850E944F1618164CF5E7
:1029600020E030E040E251E469817A818B819C81F2
:102970000E945416DC01CB01BC01CD010E946E15F2
:10298000DC01CB019A8789870FC089E190E09C87A1
:102990008B878B859C850197F1F79C878B87898531
:1029A0009A8501979A87898789859A85892B69F7FE
:1029B00014C06D817E818F8198850E946E15DC0127
:1029C000CB019A87898789859A859E878D878D8592
:1029D0009E850197F1F79E878D8700002E960FB692
:1029E000F894DEBF0FBECDBFDF91CF9108950E9456
:1029F000DA1508F481E008950E9410150C9415165C
:102A00000E940E1658F00E94071640F029F45F3F0E
:102A100029F00C94FE1551110C9449160C940416CF
:102A20000E94261668F39923B1F3552391F3951B61
:102A3000550BBB27AA2762177307840738F09F5FDF
:102A40005F4F220F331F441FAA1FA9F335D00E2E4C
:102A50003AF0E0E832D091505040E695001CCAF7B9
:102A60002BD0FE2F29D0660F771F881FBB1F26177C
:102A700037074807AB07B0E809F0BB0B802DBF0153
:102A8000FF2793585F4F3AF09E3F510578F00C9422
:102A9000FE150C9449165F3FE4F3983ED4F38695F7
:102AA00077956795B795F7959F5FC9F7880F911D43
:102AB0009695879597F90895E1E0660F771F881F2F
:102AC000BB1F621773078407BA0720F0621B730BE2
:102AD000840BBA0BEE1F88F7E09508950E942E161E
:102AE00088F09F5798F0B92F9927B751B0F0E1F0CF
:102AF000660F771F881F991F1AF0BA95C9F714C07F
:102B0000B13091F00E944816B1E008950C94481637
:102B1000672F782F8827B85F39F0B93FCCF38695B7
:102B200077956795B395D9F73EF490958095709514
:102B300061957F4F8F4F9F4F0895E89409C097FB91
:102B40003EF490958095709561957F4F8F4F9F4F84
:102B50009923A9F0F92F96E9BB279395F6958795C8
:102B600077956795B795F111F8CFFAF4BB0F11F48B
:102B700060FF1BC06F5F7F4F8F4F9F4F16C0882332
:102B800011F096E911C0772321F09EE8872F762F68
:102B900005C0662371F096E8862F70E060E02AF0A9
:102BA0009A95660F771F881FDAF7880F9695879595
:102BB00097F90895990F0008550FAA0BE0E8FEEF6A
:102BC00016161706E807F907C0F012161306E407F1
:102BD000F50798F0621B730B840B950B39F40A26EA
:102BE00061F0232B242B252B21F408950A2609F4C8
:102BF000A140A6958FEF811D811D089597F99F67CC
:102C000080E870E060E008959FEF80EC0895002474
:102C10000A941616170618060906089500240A9441
:102C200012161306140605060895092E0394000CC7
:102C300011F4882352F0BB0F40F4BF2B11F460FF56
:102C400004C06F5F7F4F8F4F9F4F089557FD90587F
:102C5000440F551F59F05F3F71F04795880F97FB60
:102C6000991F61F09F3F79F087950895121613061A
:102C70001406551FF2CF4695F1DF08C01616170649
:102C80001806991FF1CF869571056105089408957E
:102C9000E894BB2766277727CB0197F908950E9410
:102CA000DA1508F48FEF08950E9467160C94151634
:102CB0000E94071638F00E940E1620F0952311F09E
:102CC0000C94FE150C94041611240C9449160E94C1
:102CD000261670F3959FC1F3950F50E0551F629F24
:102CE000F001729FBB27F00DB11D639FAA27F00D65
:102CF000B11DAA1F649F6627B00DA11D661F829F8C
:102D00002227B00DA11D621F739FB00DA11D621F70
:102D1000839FA00D611D221F749F3327A00D611D8D
:102D2000231F849F600D211D822F762F6A2F11246F
:102D30009F5750409AF0F1F088234AF0EE0FFF1FA2
:102D4000BB1F661F771F881F91505040A9F79E3FF9
:102D5000510580F00C94FE150C9449165F3FE4F386
:102D6000983ED4F3869577956795B795F795E7954F
:102D70009F5FC1F7FE2B880F911D9695879597F958
:062D80000895F894FFCF56
:102D8600736D61727420686F6D652073797300547A
:102D9600454D50203D20002043004C4947485420D3
:0C2DA6003D20002070657263656E7400B3
:00000001FF
